:020000040000FA
:0600000002EFB1F0120056
:020006001200E6
:060008009EEF24F012003F
:02000E000D0AD9
:0100100000EF
:020011000100EC
:0400130000000000E9
:0100170000E8
:06001800C8EF24F0120005
:02001E000D00D3
:1000200017000000FF020000010000003C63010017
:100030007D0E00000300000039630100FD0C00008C
:1000400003000000C1620100860A00007800000081
:10005000BF6201001B06000002000000B662010042
:100060000C06000009000000B4620100190600003F
:1000700002000000B062010015060000040000004C
:10008000AE620100FE0A0000020000001300000042
:10009000F90C0000040000008862010097050000D0
:1000A0002600000079620100FF010000010000004D
:0C00B00011000000FE090000020000002A
:0400BC00056A046A63
:1000C000100EE76ED89008360936043605360D5006
:1000D000045C0E50055805E30D50045E0E50055AA1
:0800E000082AE72EF0D71200F8
:0800E800FF0EE350E84E120088
:0E00F000000000D000D000D0E82EFAD7120099
:0200FE001200EE
:100100000000FA00FA000000FA00FA0008002C01D2
:10011000C80008002C01C80008002C01C800090014
:040120002C01C800E6
:0C0124000C01545119E0F30EE66EEB0ED6
:10013000E66E000EE66EDCC1E6FFDDC1E6FF7FEC99
:10014000AAF0166E050EE15E1650F3CF14F0F4CF50
:1001500015F01450151002E0800E12D00C01DF5182
:1001600002E1000E01D0010E146ED25102E1000E28
:1001700001D0010E141002E0000E02D0800E00D05B
:100180001200DF0EE66E0C0EE66EE0C1E6FFE1C186
:10019000E6FFFDECA9F0E552E552E552E552000913
:1001A00002E0000E01D0010E146E14C0E6FFD20E64
:1001B000E66E0C0EE66EDEC1E6FFDFC1E6FFFDEC8B
:1001C000A9F0E552E552E552E552E552E7CF14F0C9
:1001D000000902E0000E01D0010E141402E0800EAE
:1001E00002D0000E00D01200000E00D01200030159
:1001F000E70E676FEB0E686F000E696F6AEC26F012
:10020000E2C160F32CEC26F00301A50E616F626F72
:100210004EEC26F00601A50E1D6F1E6F1DC6F4F5EF
:100220001EC6F5F5E2C1F3F582ECABF0E2C186F053
:100230001200100E0201AE6FAF6B02017E0EAC6FAA
:10024000060EAD6F14CAABF2EDEC7BF00C011C6B2B
:100250000B0EE66EE66ADB0EE66EEB0EE66E000E49
:10026000E66E7E0EE66E060EE66E36ECA9F0146EB5
:10027000070EE15E1450000906E10101FE6B63EC1C
:1002800017F026D223D2020EE66EE66AD80EE66E8C
:10029000EB0EE66E000EE66E7E0EE66E060EE66E67
:1002A00036ECA9F0146E070EE15E1450000907E168
:1002B0000101020EFE6F63EC17F00AD207D2020EA4
:1002C000E66EE66AD50EE66EEB0EE66E000EE66EA4
:1002D0007E0EE66E060EE66E36ECA9F0146E070E84
:1002E000E15E1450000907E10101010EFE6F63ECAD
:1002F00017F0EED1EBD1020EE66EE66AD20EE66E94
:10030000EB0EE66E000EE66E7E0EE66E060EE66EF6
:1003100036ECA9F0146E070EE15E1450000907E1F7
:1003200001010F0EFE6F63EC17F0D2D1CFD1080E92
:10033000E66EE66AC90EE66EEB0EE66E000EE66E3F
:100340007E0EE66E060EE66E36ECA9F0146E070E13
:10035000E15E1450000907E10101030EFE6F63EC3A
:1003600017F0B6D1B3D1060EE66EE66AC20EE66E9F
:10037000EB0EE66E000EE66E7E0EE66E060EE66E86
:1003800036ECA9F0146E070EE15E1450000919E175
:100390000001010E606FA3C5ABF5A4C5ACF5A5C502
:1003A000ADF5A6C5AEF5040E0501AB27000EAC23D6
:1003B000AD23AE230101040EFE6F63EC17F088D16C
:1003C00085D1040EE66EE66ABD0EE66EEB0EE66EB5
:1003D000000EE66E7E0EE66E060EE66E36ECA9F0B8
:1003E000146E070EE15E1450000912E1A9ECABF0A7
:1003F0000301AF0E676FEB0E686F000E696F6AEC5A
:1004000026F00101050EFE6F63EC17F061D15ED19D
:10041000040EE66EE66AAA0EE66EEB0EE66E000EBF
:10042000E66E7E0EE66E060EE66E36ECA9F0146EF3
:10043000070EE15E1450000907E10101070EFE6F8F
:1004400063EC17F045D142D1040EE66EE66AA50EC4
:10045000E66EEB0EE66E000EE66E7E0EE66E060EA5
:10046000E66E36ECA9F0146E070EE15E145000093A
:1004700007E10101080EFE6F63EC17F029D126D1C8
:10048000060EE66EE66A9E0EE66EEB0EE66E000E59
:10049000E66E7E0EE66E060EE66E36ECA9F0146E83
:1004A000070EE15E145000090BE10101170EE26F27
:1004B0009EDE0101050EFE6F63EC17F009D106D137
:1004C000050EE66EE66A980EE66EEB0EE66E000E20
:1004D000E66E7E0EE66E060EE66E36ECA9F0146E43
:1004E000070EE15E145000090BE10101180EE26FE6
:1004F0007EDE0101050EFE6F63EC17F0E9D0E6D059
:10050000050EE66EE66A920EE66EEB0EE66E000EE5
:10051000E66E7E0EE66E060EE66E36ECA9F0146E02
:10052000070EE15E145000090BE10101190EE26FA4
:100530005EDE0101050EFE6F63EC17F0C9D0C6D078
:10054000060EE66EE66A8B0EE66EEB0EE66E000EAB
:10055000E66E7E0EE66E060EE66E36ECA9F0146EC2
:10056000070EE15E145000090BE101011A0EE26F63
:100570003EDE0101050EFE6F63EC17F0A9D0A6D098
:10058000050EE66EE66A850EE66EEB0EE66E000E72
:10059000E66E7E0EE66E060EE66E36ECA9F0146E82
:1005A000070EE15E145000090BE101011B0EE26F22
:1005B0001EDE0101050EFE6F63EC17F089D086D0B8
:1005C000050EE66EE66A7F0EE66EEB0EE66E000E38
:1005D000E66E7E0EE66E060EE66E36ECA9F0146E42
:1005E000070EE15E145000090BE101011C0EE26FE1
:1005F000FEDD0101050EFE6F63EC17F069D066D0D9
:10060000050EE66EE66A780EE66EEB0EE66E000EFE
:10061000E66E7E0EE66E060EE66E36ECA9F0146E01
:10062000070EE15E145000090BE101011D0EE26F9F
:10063000DEDD0101050EFE6F63EC17F049D046D0F8
:10064000050EE66EE66A720EE66EEB0EE66E000EC4
:10065000E66E7E0EE66E060EE66E36ECA9F0146EC1
:10066000070EE15E145000090BE101011E0EE26F5E
:10067000BEDD0101050EFE6F63EC17F029D026D018
:10068000060EE66EE66A6B0EE66EEB0EE66E000E8A
:10069000E66E7E0EE66E060EE66E36ECA9F0146E81
:1006A000070EE15E1450000911E1B2ECABF003015A
:1006B0005F0E676FEB0E686F000E696F6AEC26F0D5
:1006C0000101050EFE6F63EC17F002D0000E00D0A2
:1006D00012000901560E6F6FEB0E706F000E716FF6
:1006E0000A018551E96EEA6AD890E936EA367F0E4A
:1006F000E9260A0EEA22EE52EFCF6EF952EF43F0EE
:100700000901460E6F6FEB0E706F000E716F0A01DC
:100710008551E96EEA6AD890E936EA367F0EE92615
:100720000A0EEA22EE52EFCF6EF952EF43F00901C2
:10073000420E6F6FEB0E706F000E716F0A018551E4
:10074000E96EEA6AD890E936EA367F0EE9260A0EA3
:10075000EA22EE52EFCF6EF952EF43F0D880000E4E
:1007600005019F55000EA055F00EA155010EA25592
:1007700025E29FC5B9F3A0C5BAF3A1C5BBF3A2C5D5
:10078000BCF30301410EB76F060EB86FE2EC26F022
:100790000901410E6C6F060E6D6F0A018551E96EFD
:1007A000EA6AD890E936EA367F0EE9260A0EEA228E
:1007B000EE52EFCF6BF937EC43F017D00901330E4F
:1007C0006F6FEB0E706F000E716F0A018551E96E4D
:1007D000EA6AD890E936EA367F0EE9260A0EEA225E
:1007E000EE52EFCF6EF952EC43F012000101E351EB
:1007F0000001DA5D18E109012B0E6F6FEB0E706FCF
:10080000000E716F0A018551E96EEA6AD890E936E7
:10081000EA367F0EE9260A0EEA22EE52EFCF6EF993
:1008200052EC43F034D00101E3510001D95D18E1ED
:100830000901230E6F6FEB0E706F000E716F0A01CE
:100840008551E96EEA6AD890E936EA367F0EE926E4
:100850000A0EEA22EE52EFCF6EF952EC43F017D0B7
:1008600009011B0E6F6FEB0E706F000E716F0A01A6
:100870008551E96EEA6AD890E936EA367F0EE926B4
:100880000A0EEA22EE52EFCF6EF952EC43F012005C
:100890000101E451E96EEA6AD890E936EA368D0E34
:1008A000E926000EEA22FF0EEE1802E1FF0EED1817
:1008B00002E13DDF6FD0E451E96EEA6AD890E93693
:1008C000EA368D0EE926000EEA22EECF18F0EFCFC1
:1008D00019F018C008F019C009F0CBEC97F007C068
:1008E00014F008C015F009C016F00AC017F00A0E7F
:1008F0000C6ED70E0D6EA30E0E6E3C0E0F6E14C056
:1009000007F015C008F016C009F017C00AF0FCEC9B
:1009100097F007C025F608C026F609C027F60AC0DA
:1009200028F60C6A0D6A7A0E0E6E440E0F6E25C6FE
:1009300007F026C608F027C609F028C60AF092EC90
:1009400098F007C025F608C026F609C027F60AC0A9
:1009500028F60401020E506F25C64CF426C64DF44D
:1009600027C64EF428C64FF4A2EC3CF0F3CF6CF946
:10097000F4CF6DF90A018551E96EEA6AD890E9363B
:10098000EA367F0EE9260A0EEA22EE52EFCF6BF925
:1009900037EC43F012000001D51D01E1D61D02E144
:1009A000C6DE8BD0D5C008F0D6C009F0CBEC97F0EE
:1009B00007C025F608C026F609C027F60AC028F6A3
:1009C0000A0E0C6ED70E0D6EA30E0E6E3C0E0F6E41
:1009D00025C607F026C608F027C609F028C60AF083
:1009E000FCEC97F007C025F608C026F609C027F6EC
:1009F0000AC028F60C6A0D6A7A0E0E6E440E0F6E4F
:100A000025C607F026C608F027C609F028C60AF052
:100A100092EC98F007C025F608C026F609C027F624
:100A20000AC028F60C6A0D6A0E6A410E0F6E25C6C2
:100A300007F026C608F027C609F028C60AF053ECCE
:100A40009AF0010A02E173DE38D00401020E506F01
:100A500025C64CF426C64DF427C64EF428C64FF4DE
:100A6000A2EC3CF0F3CF6CF9F4CF6DF90A0185519B
:100A7000E96EEA6AD890E936EA367F0EE9260A0E70
:100A8000EA22EE52EFCF6BF937EC43F00901180E72
:100A90006F6FEB0E706F000E716F0A018551E96E7A
:100AA000EA6AD890E936EA367F0EE9260A0EEA228B
:100AB000EE52EFCF6EF952EC43F012000001D11D5F
:100AC00001E1D21D02E133DE9FD0D1C008F0D2C0D7
:100AD00009F0CBEC97F007C014F008C015F009C07E
:100AE00016F00AC017F00A0E0C6ED70E0D6EA30E8C
:100AF0000E6E3C0E0F6E14C007F015C008F016C045
:100B000009F017C00AF0FCEC97F007C025F608C002
:100B100026F609C027F60AC028F60C6A0D6A7A0E76
:100B20000E6E440E0F6E25C607F026C608F027C6C7
:100B300009F028C60AF092EC98F007C025F608C024
:100B400026F609C027F60AC028F60C6A0D6A0E6A56
:100B5000400E0F6E25C607F026C608F027C609F01E
:100B600028C60AF053EC9AF0010A02E1E0DD4CD00D
:100B70000C6A0D6AA00E0E6E400E0F6E25C607F0B1
:100B800026C608F027C609F028C60AF04AEC9AF0F3
:100B9000010A02E1CCDD38D00401020E506F25C6F7
:100BA0004CF426C64DF427C64EF428C64FF4A2ECEA
:100BB0003CF0F3CF6CF9F4CF6DF90A018551E96E81
:100BC000EA6AD890E936EA367F0EE9260A0EEA226A
:100BD000EE52EFCF6BF937EC43F00901180E6F6F4F
:100BE000EB0E706F000E716F0A018551E96EEA6AB3
:100BF000D890E936EA367F0EE9260A0EEA22EE524E
:100C0000EFCF6EF952EC43F01200CFC01DF6D0C00A
:100C10001EF606011D1D01E11E1D02E188DD2DD01D
:100C20001D511E1102E183DD28D0110ED8801D5503
:100C3000000E1E5502E27BDD20D005011F0E206F45
:100C4000060E216F1DC61EF51EC61FF52AEC8DF07F
:100C500009011F0E6C6F060E6D6F0A018551E96E5A
:100C6000EA6AD890E936EA367F0EE9260A0EEA22C9
:100C7000EE52EFCF6BF937EC43F01200D3C01DF604
:100C8000D4C01EF606011D1D01E11E1D02E14FDD4F
:100C900079D0030ED8801D55000E1E5502E247DDA7
:100CA00071D01D511E1118E10901130E6F6FEB0E6B
:100CB000706F000E716F0A018551E96EEA6AD89073
:100CC000E936EA367F0EE9260A0EEA22EE52EFCF27
:100CD0006EF952EC43F056D0010E1D1901E11E5180
:100CE00018E109010E0E6F6FEB0E706F000E716F41
:100CF0000A018551E96EEA6AD890E936EA367F0E34
:100D0000E9260A0EEA22EE52EFCF6EF952EC43F0DA
:100D100039D0020E1D1901E11E5118E10901060E1C
:100D20006F6FEB0E706F000E716F0A018551E96EE7
:100D3000EA6AD890E936EA367F0EE9260A0EEA22F8
:100D4000EE52EFCF6EF952EC43F01CD0030E1D199A
:100D500001E11E5117E10901FE0E6F6FEA0E706F7F
:100D6000000E716F0A018551E96EEA6AD890E93682
:100D7000EA367F0EE9260A0EEA22EE52EFCF6EF92E
:100D800052EC43F012000101110EE46F48EF04F041
:100D90000001AF1D01E1B01D02E1C9DC49D0AFC0C7
:100DA00008F0B0C009F0CBEC97F007C014F008C011
:100DB00015F009C016F00AC017F00A0E0C6ED70E17
:100DC0000D6EA30E0E6E3C0E0F6E14C007F015C014
:100DD00008F016C009F017C00AF0FCEC97F007C045
:100DE00025F608C026F609C027F60AC028F6040131
:100DF000010E506F25C64CF426C64DF427C64EF49E
:100E000028C64FF4A2EC3CF0F3CF6CF9F4CF6DF9A7
:100E10000A018551E96EEA6AD890E936EA367F0E12
:100E2000E9260A0EEA22EE52EFCF6BF937EC43F0D7
:100E300012000101010EE36FF6EF03F00101010E54
:100E4000E46F48EF04F00101020EE36FF6EF03F0E8
:100E50000101020EE46F48EF04F00101030EE36F9D
:100E6000F6EF03F00101030EE46F48EF04F0010117
:100E7000040EE36FF6EF03F00101040EE46F48EF98
:100E800004F00101050EE36FF6EF03F00101050E1A
:100E9000E46F48EF04F00101060EE36FF6EF03F094
:100EA0000101060EE46F48EF04F00101070EE36F45
:100EB000F6EF03F00101070EE46F48EF04F00101C3
:100EC000080EE36FF6EF03F00101080EE46F48EF40
:100ED00004F00101090EE36FF6EF03F00101090EC2
:100EE000E46F48EF04F001010A0EE36FF6EF03F040
:100EF00001010A0EE46F48EF04F001010B0EE36FED
:100F0000F6EF03F001010B0EE46F48EF04F001016E
:100F10000C0EE36FF6EF03F001010C0EE46F48EFE7
:100F200004F001010D0EE36FF6EF03F001010D0E69
:100F3000E46F48EF04F001010E0EE36FF6EF03F0EB
:100F400001010E0EE46F48EF04F001010F0EE36F94
:100F5000F6EF03F001010F0EE46F48EF04F001011A
:100F6000100EE36FF6EF03F00101100EE46F48EF8F
:100F700004F00101130EE46F48EF04F00101140EB8
:100F8000E46F48EF04F00F014A5121E005011D0E06
:100F9000206F060E216F66C01EF567C01FF52AEC94
:100FA0008DF009011D0E6C6F060E6D6F0A018551E3
:100FB000E96EEA6AD890E936EA367F0EE9260A0E2B
:100FC000EA22EE52EFCF6BF937EC43F028D0010163
:100FD000D11D01E1D21D03E197EC03F020D0050102
:100FE0001D0E206F060E216FD1C11EF5D2C11FF557
:100FF0002AEC8DF009011D0E6C6F060E6D6F0A0153
:101000008551E96EEA6AD890E936EA367F0EE9261C
:101010000A0EEA22EE52EFCF6BF937EC43F01200E2
:101020000F014A5121E005011D0E206F060E216FB0
:1010300068C01EF569C01FF52AEC8DF009011D0E70
:101040006C6F060E6D6F0A018551E96EEA6AD890E1
:10105000E936EA367F0EE9260A0EEA22EE52EFCF93
:101060006BF937EC43F028D00101D31D01E1D41D09
:1010700003E197EC03F020D005011D0E206F060E52
:10108000216FD3C11EF5D4C11FF52AEC8DF00901E3
:101090001D0E6C6F060E6D6F0A018551E96EEA6ACE
:1010A000D890E936EA367F0EE9260A0EEA22EE5299
:1010B000EFCF6BF937EC43F01200FF0E0001D95D62
:1010C00022E005011D0E206F060E216F0001D9518F
:1010D00005011E6F1F6B2AEC8DF009011D0E6C6F50
:1010E000060E6D6F0A018551E96EEA6AD890E936FD
:1010F000EA367F0EE9260A0EEA22EE52EFCF6BF9AE
:1011000037EC43F002D097EC03F01200FF0E000121
:10111000DA5D22E005011D0E206F060E216F000131
:10112000DA5105011E6F1F6B2AEC8DF009011D0EAF
:101130006C6F060E6D6F0A018551E96EEA6AD890F0
:10114000E936EA367F0EE9260A0EEA22EE52EFCFA2
:101150006BF937EC43F002D097EC03F01200FF0E6E
:101160000001D95D62E0DFC008F0E0C009F0CBEC1F
:1011700097F007C014F008C015F009C016F00AC0B7
:1011800017F00A0E0C6ED70E0D6EA30E0E6E3C0EEF
:101190000F6E14C007F015C008F016C009F017C094
:1011A0000AF0FCEC97F007C025F608C026F609C047
:1011B00027F60AC028F60C6A0D6A7A0E0E6E440EE7
:1011C0000F6E25C607F026C608F027C609F028C608
:1011D0000AF092EC98F007C025F608C026F609C080
:1011E00027F60AC028F60401020E506F25C64CF4FB
:1011F00026C64DF427C64EF428C64FF4A2EC3CF0A8
:10120000F3CF6CF9F4CF6DF90A018551E96EEA6A02
:10121000D890E936EA367F0EE9260A0EEA22EE5227
:10122000EFCF6BF937EC43F002D097EC03F01200EC
:10123000FF0E0001DA5D62E0E1C008F0E2C009F0F3
:10124000CBEC97F007C014F008C015F009C016F0F9
:101250000AC017F00A0E0C6ED70E0D6EA30E0E6E9E
:101260003C0E0F6E14C007F015C008F016C009F050
:1012700017C00AF0FCEC97F007C025F608C026F668
:1012800009C027F60AC028F60C6A0D6A7A0E0E6E9F
:10129000440E0F6E25C607F026C608F027C609F0D3
:1012A00028C60AF092EC98F007C025F608C026F68A
:1012B00009C027F60AC028F60401020E506F25C6A1
:1012C0004CF426C64DF427C64EF428C64FF4A2ECC3
:1012D0003CF0F3CF6CF9F4CF6DF90A018551E96E5A
:1012E000EA6AD890E936EA367F0EE9260A0EEA2243
:1012F000EE52EFCF6BF937EC43F002D097EC03F0EE
:101300001200FF0E0001DA5D74E0FF0E0001D95DEE
:1013100070E0E1C008F0E2C009F0CBEC97F007C044
:1013200025F608C026F609C027F60AC028F6DFC051
:1013300008F0E0C009F0CBEC97F007C014F008C04B
:1013400015F009C016F00AC017F014C00CF015C053
:101350000DF016C00EF017C00FF025C607F026C618
:1013600008F027C609F028C60AF0FBEC97F007C082
:1013700025F608C026F609C027F60AC028F60C6A2A
:101380000D6A7A0E0E6E440E0F6E25C607F026C645
:1013900008F027C609F028C60AF092EC98F007C0BA
:1013A00025F608C026F609C027F60AC028F604016B
:1013B000020E506F25C64CF426C64DF427C64EF4D7
:1013C00028C64FF4A2EC3CF0F3CF6CF9F4CF6DF9E2
:1013D0000A018551E96EEA6AD890E936EA367F0E4D
:1013E000E9260A0EEA22EE52EFCF6BF937EC43F012
:1013F00002D097EC03F01200FF0E0001DA5D5CE012
:10140000FF0E0001D95D58E0E1C008F0E2C009F02C
:10141000CBEC97F007C025F608C026F609C027F6E2
:101420000AC028F6DFC008F0E0C009F0CBEC97F066
:1014300007C014F008C015F009C016F00AC017F074
:1014400014C00CF015C00DF016C00EF017C00FF050
:1014500025C607F026C608F027C609F028C60AF0F8
:10146000FBEC97F007C025F608C026F609C027F662
:101470000AC028F60401010E506F25C64CF426C69A
:101480004DF427C64EF428C64FF4A2EC3CF0F3CF3F
:101490006CF9F4CF6DF90A018551E96EEA6AD890CA
:1014A000E936EA367F0EE9260A0EEA22EE52EFCF3F
:1014B0006BF937EC43F002D097EC03F012000F0EFB
:1014C0000101E5150601486FF00E0101E515E83848
:1014D0000F0B0601496F495109080FE2370E4925E4
:1014E000E66E0101E6C1E9FFE7C1EAFFE62B000E67
:1014F000E723E552E750EF6E0ED0300E4925E66E39
:101500000101E6C1E9FFE7C1EAFFE62B000EE72390
:10151000E552E750EF6E0601485109080FE2370E19
:101520004825E66E0101E6C1E9FFE7C1EAFFE62BC7
:10153000000EE723E552E750EF6E0ED0300E48253F
:10154000E66E0101E6C1E9FFE7C1EAFFE62B000E06
:10155000E723E552E750EF6EE6C1E9FFE7C1EAFF96
:10156000EF6A12000A018551E96EEA6AD890E936FD
:10157000EA367F0EE9260A0EEA22EE52EFCF5DF937
:10158000C0EC41F0F3CF14F0F4CF15F0140E145C5E
:10159000000E155808E20A01010E0C6F0D6B0E6B60
:1015A0000F6B62D061D0B1C02EF6B2C02FF6000131
:1015B000610558E10901FB0E6F6FEA0E706F000EB6
:1015C000716F0A018551E96EEA6AD890E936EA3608
:1015D0007F0EE9260A0EEA22EE52EFCF6EF952ECA8
:1015E00043F001011E0EE66F060EE76F2FC614F0E2
:1015F000156A14C0E5F163DF09011E0E6C6F060E5B
:101600006D6F0A018551E96EEA6AD890E936EA36CB
:101610007F0EE9260A0EEA22EE52EFCF6BF937EC85
:1016200043F00101260EE66F060EE76FFF0E06017E
:101630002E150101E56F43DF0901260E6C6F060EC2
:101640006D6F0A018551E96EEA6AD890E936EA368B
:101650007F0EE9260A0EEA22EE52EFCF6BF937EC45
:1016600043F002D097EC03F012000001610518E18D
:101670000901F10E6F6FEA0E706F000E716F0A01B3
:101680008551E96EEA6AD890E936EA367F0EE92696
:101690000A0EEA22EE52EFCF6EF952EC43F017D069
:1016A0000901E40E6F6FEA0E706F000E716F0A0190
:1016B0008551E96EEA6AD890E936EA367F0EE92666
:1016C0000A0EEA22EE52EFCF6EF952EC43F012000E
:1016D0000101E851E96EEA6AD890E936EA368D0EE2
:1016E000E926000EEA22EECF1DF6EDCF1EF606012A
:1016F000010E1D1901E11E5118E10901E10E6F6F84
:10170000EA0E706F000E716F0A018551E96EEA6A88
:10171000D890E936EA367F0EE9260A0EEA22EE5222
:10172000EFCF6EF952EC43F050D01D511E1118E16D
:101730000901DD0E6F6FEA0E706F000E716F0A0106
:101740008551E96EEA6AD890E936EA367F0EE926D5
:101750000A0EEA22EE52EFCF6EF952EC43F035D08A
:10176000A50E1D1902E1A50E1E1918E10901DA0ED8
:101770006F6FEA0E706F000E716F0A018551E96E8E
:10178000EA6AD890E936EA367F0EE9260A0EEA229E
:10179000EE52EFCF6EF952EC43F017D00901D70E9D
:1017A0006F6FEA0E706F000E716F0A018551E96E5E
:1017B000EA6AD890E936EA367F0EE9260A0EEA226E
:1017C000EE52EFCF6EF952EC43F012000101E951F5
:1017D000E96EEA6AD890E936EA368D0EE926000EFF
:1017E000EA22EECF1DF6EDCF1EF60601010E1D1901
:1017F00001E11E5118E10901CF0E6F6FEA0E706F03
:10180000000E716F0A018551E96EEA6AD890E936D7
:10181000EA367F0EE9260A0EEA22EE52EFCF6EF983
:1018200052EC43F032D01D511E1118E10901C70ED0
:101830006F6FEA0E706F000E716F0A018551E96ECD
:10184000EA6AD890E936EA367F0EE9260A0EEA22DD
:10185000EE52EFCF6EF952EC43F017D009011B0E98
:101860006F6FEB0E706F000E716F0A018551E96E9C
:10187000EA6AD890E936EA367F0EE9260A0EEA22AD
:10188000EE52EFCF6EF952EC43F0120001011D0E43
:10189000E86F68EF0BF001011E0EE86F68EF0BF0C8
:1018A0000101170EE86F68EF0BF00101180EE86FE9
:1018B00068EF0BF00101190EE86F68EF0BF0010102
:1018C0001A0EE86F68EF0BF001011B0EE86F68EF6E
:1018D0000BF001011C0EE86F68EF0BF001011D0E0B
:1018E000E96FE6EF0BF001011E0EE96FE6EF0BF07A
:1018F0000101170EE96FE6EF0BF00101180EE96F19
:10190000E6EF0BF00101190EE96FE6EF0BF00101B4
:101910001A0EE96FE6EF0BF001011B0EE96FE6EF1F
:101920000BF001011C0EE96FE6EF0BF0C40E010194
:10193000D31902E1090ED41902E169EC03F0120097
:10194000280E0101D31902E10A0ED41902E169EC53
:1019500003F012008C0E0101D31902E10A0ED41912
:1019600002E169EC03F01200F00E0101D31902E16B
:101970000A0ED41902E169EC03F01200AC0E010169
:10198000D31902E10D0ED41902E169EC03F0120043
:10199000100E0101D31902E10E0ED41902E169EC17
:1019A00003F01200740E0101D31902E10E0ED419D6
:1019B00002E169EC03F01200D80E0101D31902E133
:1019C0000E0ED41902E169EC03F012000101D31DDF
:1019D00001E1D41D02E169EC03F01200A40E010143
:1019E000D11902E1060ED21902E169EC03F01200EE
:1019F000080E0101D11902E1070ED21902E169ECCA
:101A000003F012006C0E0101D11902E1070ED21988
:101A100002E169EC03F01200D00E0101D11902E1DC
:101A2000070ED21902E169EC03F01200F00E010179
:101A3000D11902E10A0ED21902E169EC03F0120099
:101A4000540E0101D11902E10B0ED21902E169EC29
:101A500003F01200B80E0101D11902E10B0ED219E8
:101A600002E169EC03F012001C0E0101D11902E140
:101A70000C0ED21902E169EC03F012000101D11D34
:101A800001E1D21D02E169EC03F012000901BF0E71
:101A90006F6FEA0E706F000E716F0A018551E96E6B
:101AA000EA6AD890E936EA367F0EE9260A0EEA227B
:101AB000EE52EFCF6EF952EF43F00C011C5118E1DA
:101AC0000901BD0E6F6FEA0E706F000E716F0A0193
:101AD0008551E96EEA6AD890E936EA367F0EE92642
:101AE0000A0EEA22EE52EFCF6EF952EC43F017D015
:101AF0000901B50E6F6FEA0E706F000E716F0A016B
:101B00008551E96EEA6AD890E936EA367F0EE92611
:101B10000A0EEA22EE52EFCF6EF952EC43F01200B9
:101B20000A018551E96EEA6AD890E936EA367F0EF5
:101B3000E9260A0EEA22EE52EFCF5DF9C0EC41F041
:101B4000F3CF14F0F4CF15F0070E145C000E155807
:101B500008E20A01010E0C6F0D6B0E6B0F6B4BD080
:101B60004AD006011D6B040E1D5D45E205011E0EE7
:101B7000206F060E216F06011D51EA6A000FE96E03
:101B8000010EEA22EF5005011E6F1F6B2AEC8DF04B
:101B900009011E0E6C6F060E6D6F0A018551E96E0C
:101BA000EA6AD890E936EA367F0EE9260A0EEA227A
:101BB000EE52EFCF6BF937EC43F0030E06011D5DDB
:101BC00017E20901B30E6F6FEA0E706F000E716FAE
:101BD0000A018551E96EEA6AD890E936EA367F0E45
:101BE000E9260A0EEA22EE52EFCF6EF952EC43F0EC
:101BF00006011D2BB8D712000A018551E96EEA6A69
:101C0000D890E936EA367F0EE9260A0EEA22EE522D
:101C1000EFCF5DF9C0EC41F0F3CF14F0F4CF15F045
:101C2000070E145C000E155808E20A01010E0C6F35
:101C30000D6B0E6B0F6B4BD04AD006011D6B040E63
:101C40001D5D45E205011E0E206F060E216F060187
:101C50001D51EA6A040FE96E010EEA22EF500501F8
:101C60001E6F1F6B2AEC8DF009011E0E6C6F060EA5
:101C70006D6F0A018551E96EEA6AD890E936EA3655
:101C80007F0EE9260A0EEA22EE52EFCF6BF937EC0F
:101C900043F0030E06011D5D17E20901B30E6F6FDD
:101CA000EA0E706F000E716F0A018551E96EEA6AE3
:101CB000D890E936EA367F0EE9260A0EEA22EE527D
:101CC000EFCF6EF952EC43F006011D2BB8D712008E
:101CD0000A018551E96EEA6AD890E936EA367F0E44
:101CE000E9260A0EEA22EE52EFCF5DF9C0EC41F090
:101CF000F3CF14F0F4CF15F0070E145C000E155856
:101D000008E20A01010E0C6F0D6B0E6B0F6B4BD0CE
:101D10004AD006011D6B040E1D5D45E205011E0E35
:101D2000206F060E216F06011D51EA6A080FE96E49
:101D3000010EEA22EF5005011E6F1F6B2AEC8DF099
:101D400009011E0E6C6F060E6D6F0A018551E96E5A
:101D5000EA6AD890E936EA367F0EE9260A0EEA22C8
:101D6000EE52EFCF6BF937EC43F0030E06011D5D29
:101D700017E20901B30E6F6FEA0E706F000E716FFC
:101D80000A018551E96EEA6AD890E936EA367F0E93
:101D9000E9260A0EEA22EE52EFCF6EF952EC43F03A
:101DA00006011D2BB8D712000A018551E96EEA6AB7
:101DB000D890E936EA367F0EE9260A0EEA22EE527C
:101DC000EFCF5DF9C0EC41F0F3CF14F0F4CF15F094
:101DD000070E145C000E155808E20A01010E0C6F84
:101DE0000D6B0E6B0F6B4BD04AD006011D6B040EB2
:101DF0001D5D45E205011E0E206F060E216F0601D6
:101E00001D51EA6A0C0FE96E010EEA22EF5005013E
:101E10001E6F1F6B2AEC8DF009011E0E6C6F060EF3
:101E20006D6F0A018551E96EEA6AD890E936EA36A3
:101E30007F0EE9260A0EEA22EE52EFCF6BF937EC5D
:101E400043F0030E06011D5D17E20901B30E6F6F2B
:101E5000EA0E706F000E716F0A018551E96EEA6A31
:101E6000D890E936EA367F0EE9260A0EEA22EE52CB
:101E7000EFCF6EF952EC43F006011D2BB8D71200DC
:101E80000A018551E96EEA6AD890E936EA367F0E92
:101E9000E9260A0EEA22EE52EFCF5DF9C0EC41F0DE
:101EA000F3CF14F0F4CF15F0070E145C000E1558A4
:101EB00008E20A01010E0C6F0D6B0E6B0F6B4BD01D
:101EC0004AD006011D6B040E1D5D45E205011E0E84
:101ED000206F060E216F06011D51EA6A100FE96E90
:101EE000010EEA22EF5005011E6F1F6B2AEC8DF0E8
:101EF00009011E0E6C6F060E6D6F0A018551E96EA9
:101F0000EA6AD890E936EA367F0EE9260A0EEA2216
:101F1000EE52EFCF6BF937EC43F0030E06011D5D77
:101F200017E20901B30E6F6FEA0E706F000E716F4A
:101F30000A018551E96EEA6AD890E936EA367F0EE1
:101F4000E9260A0EEA22EE52EFCF6EF952EC43F088
:101F500006011D2BB8D712001C0EE66E010EE66EB0
:101F60004CECAAF0E552E552F3CF14F0F4CF15F0A3
:101F700014C0E6FF15C0E6FF0A018551E96EEA6A62
:101F8000D890E936EA367F0EE9260A0EEA22EE52AA
:101F9000EFCF5DF9C0EC41F0E552E7CF15F0E55227
:101FA000E7CF14F0F3CF16F0F4CF17F01450165C0F
:101FB0001550175807E20A01010E0C6F0D6B0E6BDE
:101FC0000F6B15D009011C0E6C6F010E6D6F0A01AD
:101FD0008551E96EEA6AD890E936EA367F0EE9263D
:101FE0000A0EEA22EE52EFCF6BF937EC43F0120003
:101FF000200EE66E010EE66E4CECAAF0E552E552BC
:10200000F3CF14F0F4CF15F014C0E6FF15C0E6FFCF
:102010000A018551E96EEA6AD890E936EA367F0E00
:10202000E9260A0EEA22EE52EFCF5DF9C0EC41F04C
:10203000E552E7CF15F0E552E7CF14F0F3CF16F0F5
:10204000F4CF17F01450165C1550175807E20A0128
:10205000010E0C6F0D6B0E6B0F6B15D00901200E6E
:102060006C6F010E6D6F0A018551E96EEA6AD890B6
:10207000E936EA367F0EE9260A0EEA22EE52EFCF63
:102080006BF937EC43F0120005011D0E206F060EB0
:10209000216F35C11EF536C11FF52AEC8DF00901FF
:1020A0001D0E6C6F060E6D6F0A018551E96EEA6AAE
:1020B000D890E936EA367F0EE9260A0EEA22EE5279
:1020C000EFCF6BF937EF43F0010138A102D080EC7C
:1020D00003F0120012000401380538E10901A20ED4
:1020E0006F6FEA0E706F000E716F0A018551E96E15
:1020F000EA6AD890E936EA367F0EE9260A0EEA2225
:10210000EE52EFCF6EF952EC43F005011D0E206F39
:10211000060E216F39C41EF53AC41FF52AEC8DF066
:1021200009011D0E6C6F060E6D6F0A018551E96E77
:10213000EA6AD890E936EA367F0EE9260A0EEA22E4
:10214000EE52EFCF6BF937EC43F038D0020E385D2A
:1021500018E10901940E6F6FEA0E706F000E716F37
:102160000A018551E96EEA6AD890E936EA367F0EAF
:10217000E9260A0EEA22EE52EFCF6EF952EC43F056
:102180001DD0030E385D18E109018B0E6F6FEA0E4A
:10219000706F000E716F0A018551E96EEA6AD8907E
:1021A000E936EA367F0EE9260A0EEA22EE52EFCF32
:1021B0006EF952EC43F002D097EC03F012000401E8
:1021C0003B0538E10901790E6F6FEA0E706F000E62
:1021D000716F0A018551E96EEA6AD890E936EA36EC
:1021E0007F0EE9260A0EEA22EE52EFCF6EF952EC8C
:1021F00043F005011D0E206F060E216F3CC41EF535
:102200003DC41FF52AEC8DF009011D0E6C6F060E02
:102210006D6F0A018551E96EEA6AD890E936EA36AF
:102220007F0EE9260A0EEA22EE52EFCF6BF937EC69
:1022300043F04DD0020E3B5D18E10901940E6F6F23
:10224000EA0E706F000E716F0A018551E96EEA6A3D
:10225000D890E936EA367F0EE9260A0EEA22EE52D7
:10226000EFCF6EF952EC43F032D0030E3B5D18E134
:1022700009018B0E6F6FEA0E706F000E716F0A010D
:102280008551E96EEA6AD890E936EA367F0EE9268A
:102290000A0EEA22EE52EFCF6EF952EC43F017D05D
:1022A0000901BD0E6F6FEA0E706F000E716F0A01AB
:1022B0008551E96EEA6AD890E936EA367F0EE9265A
:1022C0000A0EEA22EE52EFCF6EF952EC43F0120002
:1022D0000101D05102E080EC03F012000101CF5166
:1022E00002E080EC03F012000101375102E080ECC3
:1022F00003F012000901390E6C6F010E6D6F0A01B7
:102300008551E96EEA6AD890E936EA367F0EE92609
:102310000A0EEA22EE52EFCF6BF937EF43F00501D8
:102320001D0E206F060E216F73C11EF574C11FF5BF
:102330002AEC8DF009011D0E6C6F060E6D6F0A01FF
:102340008551E96EEA6AD890E936EA367F0EE926C9
:102350000A0EEA22EE52EFCF6BF937EF43F0090194
:102360004E0E6C6F010E6D6F0A018551E96EEA6ABF
:10237000D890E936EA367F0EE9260A0EEA22EE52B6
:10238000EFCF6BF937EF43F005011D0E206F060EFE
:10239000216F75C11EF576C11FF52AEC8DF009017C
:1023A0001D0E6C6F060E6D6F0A018551E96EEA6AAB
:1023B000D890E936EA367F0EE9260A0EEA22EE5276
:1023C000EFCF6BF937EF43F00101775102E080EC7A
:1023D00003F0120005011D0E206F060E216F78C15B
:1023E0001EF579C11FF52AEC8DF009011D0E6C6FE9
:1023F000060E6D6F0A018551E96EEA6AD890E936DA
:10240000EA367F0EE9260A0EEA22EE52EFCF6BF98A
:1024100037EF43F005011D0E206F060E216F7AC1C4
:102420001EF57BC11FF52AEC8DF009011D0E6C6FA6
:10243000060E6D6F0A018551E96EEA6AD890E93699
:10244000EA367F0EE9260A0EEA22EE52EFCF6BF94A
:1024500037EF43F001017C5102E080EC03F0120001
:1024600001017D5102E169EC03F0120001017D518F
:1024700002E069EC03F012000101835102E069EC13
:1024800003F012000101835102E169EC03F0120034
:102490000101845102E069EC03F012000101845152
:1024A00002E169EC03F012000101855102E069ECE0
:1024B00003F012000101855102E169EC03F0120002
:1024C0000101865102E069EC03F01200010186511E
:1024D00002E169EC03F012000101875102E069ECAE
:1024E00003F012000101875102E169EC03F01200D0
:1024F0000101885102E069EC03F0120001018851EA
:1025000002E169EC03F012000101825102E169EC81
:1025100003F012000101825102E069EC03F01200A5
:1025200005011D0E206F060E216F7EC11EF57FC1B5
:102530001FF52AEC8DF009011D0E6C6F060E6D6FF4
:102540000A018551E96EEA6AD890E936EA367F0ECB
:10255000E9260A0EEA22EE52EFCF6BF937EF43F08D
:1025600005011D0E206F060E216F80C11EF581C171
:102570001FF52AEC8DF009011D0E6C6F060E6D6FB4
:102580000A018551E96EEA6AD890E936EA367F0E8B
:10259000E9260A0EEA22EE52EFCF6BF937EF43F04D
:1025A0000101895102E080EC03F0120009018A0E5A
:1025B0006C6F010E6D6F0A018551E96EEA6AD89061
:1025C000E936EA367F0EE9260A0EEA22EE52EFCF0E
:1025D0006BF937EF43F00501476B200E486F496BED
:1025E0004A6BE8ECA3F00CECA4F006011D6F1D5142
:1025F00001E113D01DC65FF90A018551E96EEA6A4F
:10260000D890E936EA367F0EE9260A0EEA22EE5223
:10261000EFCF5EF9F1EC41F0E6D712EFA4F005013F
:102620001D0E206F060E216FB3C11EF5B4C11FF53C
:102630002AEC8DF009011D0E6C6F060E6D6F0A01FC
:102640008551E96EEA6AD890E936EA367F0EE926C6
:102650000A0EEA22EE52EFCF6BF937EF43F0050195
:102660001D0E206F060E216FB1C11EF5B2C11FF500
:102670002AEC8DF009011D0E6C6F060E6D6F0A01BC
:102680008551E96EEA6AD890E936EA367F0EE92686
:102690000A0EEA22EE52EFCF6BF937EF43F0B50E98
:1026A000E66E010EE66E4CECAAF0E552E552F3CF71
:1026B00014F0F4CF15F0145015102CE00901720E2F
:1026C0006F6FEA0E706F000E716F0A018551E96E2F
:1026D000EA6AD890E936EA367F0EE9260A0EEA223F
:1026E000EE52EFCF6EF952EC43F00901B50E6C6F6C
:1026F000010E6D6F0A018551E96EEA6AD890E936DC
:10270000EA367F0EE9260A0EEA22EE52EFCF6BF987
:1027100037EC43F01200C20EE66E010EE66E4CEC92
:10272000AAF0E552E552F3CF14F0F4CF15F01450AF
:10273000151062E00901720E6F6FEA0E706F000EE5
:10274000716F0A018551E96EEA6AD890E936EA3676
:102750007F0EE9260A0EEA22EE52EFCF6EF952EC16
:1027600043F006011D6BC20EE66E010EE66E4CECE8
:10277000AAF0E552E552F3CF14F0F4CF15F00601BC
:1027800014501D5D000E155437E2690E146E620E72
:10279000156E010E166E1DC617F0186A196A1450D0
:1027A0001724F36E15501820F46E16501920F86E89
:1027B000F4CFF7FFF3CFF6FF0800F5501EC6E9FF90
:1027C0001FC6EAFFEF6E1EC6E9FF1FC6EAFFEFCF86
:1027D0005FF90A018551E96EEA6AD890E936EA366E
:1027E0007F0EE9260A0EEA22EE52EFCF5EF9F1ECF7
:1027F00041F006011D2BB7D7120000016D5118E002
:102800000901CF0E6F6FEA0E706F000E716F0A0133
:102810008551E96EEA6AD890E936EA367F0EE926F4
:102820000A0EEA22EE52EFCF6EF952EC43F017D0C7
:102830000901C70E6F6FEA0E706F000E716F0A010B
:102840008551E96EEA6AD890E936EA367F0EE926C4
:102850000A0EEA22EE52EFCF6EF952EC43F012006C
:1028600000016C5118E00901CF0E6F6FEA0E706F16
:10287000000E716F0A018551E96EEA6AD890E93657
:10288000EA367F0EE9260A0EEA22EE52EFCF6EF903
:1028900052EC43F017D00901C70E6F6FEA0E706F4C
:1028A000000E716F0A018551E96EEA6AD890E93627
:1028B000EA367F0EE9260A0EEA22EE52EFCF6EF9D3
:1028C00052EC43F0120000016D5118E00901690E4D
:1028D0006F6FEA0E706F000E716F0A018551E96E1D
:1028E000EA6AD890E936EA367F0EE9260A0EEA222D
:1028F000EE52EFCF6EF952EC43F017D00901620EA1
:102900006F6FEA0E706F000E716F0A018551E96EEC
:10291000EA6AD890E936EA367F0EE9260A0EEA22FC
:10292000EE52EFCF6EF952EC43F0120000016C5101
:1029300018E00901690E6F6FEA0E706F000E716F7B
:102940000A018551E96EEA6AD890E936EA367F0EC7
:10295000E9260A0EEA22EE52EFCF6EF952EC43F06E
:1029600017D00901620E6F6FEA0E706F000E716F63
:102970000A018551E96EEA6AD890E936EA367F0E97
:10298000E9260A0EEA22EE52EFCF6EF952EC43F03E
:10299000120012000A018551E96EEA6AD890E93600
:1029A000EA367F0EE9260A0EEA22EE52EFCF5DF9F3
:1029B000C0EC41F0F3CF14F0F4CF15F0140E145C1A
:1029C000000E155808E20A01010E0C6F0D6B0E6B1C
:1029D0000F6B52D051D006011D6B060E1D5D4CE2EF
:1029E0001D51EA6AD60FE96E010EEA22EF50E66E3B
:1029F000E66A5D0EE66EEA0EE66E000EE66E1E0EEE
:102A0000E66E060EE66E2BECAFF0146E070EE15E7E
:102A1000145009011E0E6C6F060E6D6F0A01855170
:102A2000E96EEA6AD890E936EA367F0EE9260A0EA0
:102A3000EA22EE52EFCF6BF937EC43F0050E0601B8
:102A40001D5D17E209015B0E6F6FEA0E706F000EDD
:102A5000716F0A018551E96EEA6AD890E936EA3663
:102A60007F0EE9260A0EEA22EE52EFCF6EF952EC03
:102A700043F006011D2BB1D712000501975118E153
:102A80000901BD0E6F6FEA0E706F000E716F0A01C3
:102A90008551E96EEA6AD890E936EA367F0EE92672
:102AA0000A0EEA22EE52EFCF6EF952EC43F04FD00D
:102AB0000901500E6F6FEA0E706F000E716F0A0100
:102AC0008551E96EEA6AD890E936EA367F0EE92642
:102AD0000A0EEA22EE52EFCF6EF952EC43F00501F6
:102AE0001D0E206F060E216F0501985105011E6F06
:102AF0001F6B2AEC8DF009011D0E6C6F060E6D6FB9
:102B00000A018551E96EEA6AD890E936EA367F0E05
:102B1000E9260A0EEA22EE52EFCF6BF937EC43F0CA
:102B200009014D0E6F6FEA0E706F000E716F0A0192
:102B30008551E96EEA6AD890E936EA367F0EE926D1
:102B40000A0EEA22EE52EFCF6EF952EC43F0120079
:102B500009013A0E6F6FEA0E706F000E716F0A0175
:102B60008551E96EEA6AD890E936EA367F0EE926A1
:102B70000A0EEA22EE52EFCF6EF952EF43F009014E
:102B8000BD0E6F6FEA0E706F000E716F0A018551F6
:102B9000E96EEA6AD890E936EA367F0EE9260A0E2F
:102BA000EA22EE52EFCF6EF952EC43F00A01855162
:102BB000E96EEA6AD890E936EA367F0EE9260A0E0F
:102BC000EA22EE52EFCF5DF9C0EC41F0F3CF14F002
:102BD000F4CF15F0370E145C000E155811E20A01FF
:102BE000010E0C6F0D6B0E6B0F6B0301320E676FD6
:102BF000EA0E686F000E696F6AEC26F052D14FD171
:102C00000C011C0518E109010D0E6F6FEA0E706FC3
:102C1000000E716F0A018551E96EEA6AD890E936B3
:102C2000EA367F0EE9260A0EEA22EE52EFCF6EF95F
:102C300052EC43F034D1020E1C5D18E10901FD0E87
:102C40006F6FE90E706F000E716F0A018551E96EAA
:102C5000EA6AD890E936EA367F0EE9260A0EEA22B9
:102C6000EE52EFCF6EF952EC43F019D1030E1C5D1A
:102C700018E10901D70E6F6FE90E706F000E716FCA
:102C80000A018551E96EEA6AD890E936EA367F0E84
:102C9000E9260A0EEA22EE52EFCF6EF952EC43F02B
:102CA000FED0040E1C5D19E10901CC0E6F6FE90E18
:102CB000706F000E716F0A018551E96EEA6AD89053
:102CC000E936EA367F0EE9260A0EEA22EE52EFCF07
:102CD0006EF952EC43F03CDFE2D0050E1C5D19E1C9
:102CE0000901C20E6F6FE90E706F000E716F0A015D
:102CF0008551E96EEA6AD890E936EA367F0EE92610
:102D00000A0EEA22EE52EFCF6EF952EC43F020DFCA
:102D1000C6D0060E1C5D19E10901B90E6F6FE90EF0
:102D2000706F000E716F0A018551E96EEA6AD890E2
:102D3000E936EA367F0EE9260A0EEA22EE52EFCF96
:102D40006EF952EC43F004DFAAD0070E1C5D19E1C6
:102D50000901AC0E6F6FE90E706F000E716F0A0102
:102D60008551E96EEA6AD890E936EA367F0EE9269F
:102D70000A0EEA22EE52EFCF6EF952EC43F0E8DE93
:102D80008ED0080E1C5D19E10901A10E6F6FE90ECE
:102D9000706F000E716F0A018551E96EEA6AD89072
:102DA000E936EA367F0EE9260A0EEA22EE52EFCF26
:102DB0006EF952EC43F0CCDE72D0090E1C5D19E1C5
:102DC0000901990E6F6FE90E706F000E716F0A01A5
:102DD0008551E96EEA6AD890E936EA367F0EE9262F
:102DE0000A0EEA22EE52EFCF6EF952EC43F0B0DE5B
:102DF00056D00A0E1C5D18E10901730E6F6FE90EC3
:102E0000706F000E716F0A018551E96EEA6AD89001
:102E1000E936EA367F0EE9260A0EEA22EE52EFCFB5
:102E20006EF952EC43F03BD00B0E1C5D18E109012A
:102E30004B0E6F6FE90E706F000E716F0A018551B6
:102E4000E96EEA6AD890E936EA367F0EE9260A0E7C
:102E5000EA22EE52EFCF6EF952EC43F020D00C0E86
:102E60001C5D18E109013C0E6F6FE90E706F000EDA
:102E7000716F0A018551E96EEA6AD890E936EA363F
:102E80007F0EE9260A0EEA22EE52EFCF6EF952ECDF
:102E900043F005D00A010C6B0D6B0E6B0F6B0C0130
:102EA0001C6B1200320EE66EE90EE66E000EE66E48
:102EB0001A0EE66E0A0EE66E33ECAAF0146E050EDC
:102EC000E15E145012000A018551E96EEA6AD89059
:102ED000E936EA367F0EE9260A0EEA22EE52EFCFF5
:102EE00074F9AAEC43F0F3CF14F0F4CF15F0166A9E
:102EF000176A0A010051145C015115580251165805
:102F00000351175803E2010E9DEF24F003012C0E2C
:102F1000676FE90E686F000E696F6AEC26F00101B9
:102F2000FE5101E00BD10A01005101110211031100
:102F300001E1CBD0060E0401F96FFA6B04011A0E01
:102F4000F76F0A0EF86F83EC67F0000901E0BDD05F
:102F50005C0E0401FD6FFE6B0401200EFB6F0A0E78
:102F6000FC6FA3EC67F0000901E0FFD7280EE66EC6
:102F7000E90EE66E000EE66E1A0EE66E0A0EE66EBC
:102F80001DECAAF0146E050EE15E1450000902E07B
:102F9000000E01D0010E030E000901E195D00601DB
:102FA000200E686F0A0E696F7C6B0C0E7C5D62E20E
:102FB00068C6E9FF69C6EAFFEF5034E068C6E9FF7A
:102FC00069C6EAFFEFCF14F0300E145C07E368C661
:102FD000E9FF69C6EAFFEF50390824E268C6E9FF55
:102FE00069C6EAFFEFCF15F0410E155C07E368C62E
:102FF000E9FF69C6EAFFEF50460814E268C6E9FF38
:1030000069C6EAFFEFCF16F0610E165C07E368C6EB
:10301000E9FF69C6EAFFEF50660804E2682B000E7C
:103020006923C6D768C6E9FF69C6EAFFEF500EE11B
:103030000C0E7C5D0AE27C51EA6A1A0FE96E0A0EF8
:10304000EA22300EEF6E7C2BF3D714D068C6E9FF6E
:1030500069C6EAFF682B000E6923EF50E66E7C51CB
:10306000EA6A1A0FE96E0A0EEA22E552E750EF6E9D
:103070007C2B9BD77C6B060E7C5D26E27C51E82482
:10308000EA6A1A0FE96E0A0EEA22EFCF7BF67C514C
:10309000E824010FEA6A1A0FE96E0A0EEA22EFCF5E
:1030A0007AF67AC622F57BC623F580EC8DF0E66EC3
:1030B00006017C51EA6AD60FE96E010EEA22E5525A
:1030C000E750EF6E7C2BD7D72ED7060E0601706F18
:1030D000716BD60E686F010E696F0501606B100E83
:1030E000616F090E626F636BE3ECA4F00601760E6C
:1030F0006F6F010E0501666F676B05016F0E646FE0
:10310000060E656FECECA4F00601050E6F6F010E64
:103110000501666F676B05016F0E646F060E656FC4
:10312000ECECA4F070C666F571C667F568C664F588
:1031300069C665F5ECECA4F018EF24F0030EFE5D13
:1031400002E0DBEF20F003010D0E676FE90E686F00
:10315000000E696F6AEC26F00101376B386B776BF4
:103160007C6B896BCF6BD06B0A010051011102118E
:10317000031102E1C7EF20F0060E0401F96FFA6BAC
:1031800004011A0EF76F0A0EF86F83EC67F000095E
:1031900002E0C7EF20F05C0E0401FD6FFE6B04013E
:1031A000200EFB6F0A0EFC6FA3EC67F0000901E034
:1031B000FFD70A0EE66EE90EE66E000EE66E1A0EF8
:1031C000E66E0A0EE66E1DECAAF0146E050EE15EC8
:1031D0001450000918E10501000E0F6F010E106F69
:1031E0000501200E0D6F0A0E0E6FACEC8BF000097E
:1031F00001E1FFD700C114F101C115F102C116F1BF
:1032000003C117F16AD3070EE66EE90EE66E000EF3
:10321000E66E1A0EE66E0A0EE66E1DECAAF0146E4D
:10322000050EE15E1450000918E10501040E0F6F50
:10323000010E106F0501200E0D6F0A0E0E6FACEC23
:103240008BF0000901E1FFD704C118F105C119F1A4
:1032500006C11AF107C11BF140D3040EE66EE90E58
:10326000E66E000EE66E1A0EE66E0A0EE66E1DECB7
:10327000AAF0146E050EE15E1450000910E105017C
:10328000080E0F6F010E106F0501200E0D6F0A0E54
:103290000E6FACEC8BF0000901E1FFD71ED3010EDD
:1032A000E66EE90EE66E000EE66E1A0EE66E0A0E89
:1032B000E66E1DECAAF0146E050EE15E14500009D6
:1032C00010E105010C0E0F6F010E106F0501200EAD
:1032D0000D6F0A0E0E6FACEC8BF0000901E1FFD709
:1032E000FCD2FE0EE66EE80EE66E000EE66E1A0EDC
:1032F000E66E0A0EE66E1DECAAF0146E050EE15E97
:103300001450000910E10501100E0F6F010E106F2F
:103310000501200E0D6F0A0E0E6FACEC8BF000094C
:1033200001E1FFD7DAD2FB0EE66EE80EE66E000E84
:10333000E66E1A0EE66E0A0EE66E1DECAAF0146E2C
:10334000050EE15E1450000934E1200EE66E0A0E0F
:10335000E66E4CECAAF0E552E552F3CF6AF60601B0
:103360006A5108E0150E146E156A6A51145C000E5D
:10337000155805E20C01040E1C6F1BEF24F06A5176
:10338000E66EE66A200EE66E0A0EE66E200EE66E29
:10339000010EE66E55ECA9F0146E060EE15E1450B7
:1033A00006016A51EA6A200FE96E010EEA22EF6A0D
:1033B00094D2F80EE66EE80EE66E000EE66E1A0E79
:1033C000E66E0A0EE66E1DECAAF0146E050EE15EC6
:1033D000145000092FE1200EE66E0A0EE66E4CEC4A
:1033E000AAF0E552E552F3CF6AF606016A5103E00E
:1033F0006A51030805E20C01050E1C6F1BEF24F057
:103400006A51E66EE66A200EE66E0A0EE66E1C0E45
:10341000E66E010EE66E55ECA9F0146E060EE15E46
:10342000145006016A51EA6A1C0FE96E010EEA2285
:10343000EF6A53D2F50EE66EE80EE66E000EE66E0B
:103440001A0EE66E0A0EE66E1DECAAF0146E050E5C
:10345000E15E1450000916E1F30EE66EE80EE66E2A
:10346000000EE66E200EE66E0A0EE66E1DECAAF069
:10347000146E050EE15E1450000903E10101010E16
:10348000376F2BD2F00EE66EE80EE66E000EE66E9B
:103490001A0EE66E0A0EE66E1DECAAF0146E050E0C
:1034A000E15E145000090DE1200EE66E0A0EE66E94
:1034B000A4ECA1F0E552E552F3CF35F1F4CF36F1AB
:1034C0000CD2EB0EE66EE80EE66E000EE66E1A0EFD
:1034D000E66E0A0EE66E1DECAAF0146E050EE15EB5
:1034E0001450000928E10301DD0E676FE80E686FD4
:1034F000000E696F6AEC26F0F30EE66EE80EE66EDB
:10350000000EE66E200EE66E0A0EE66E1DECAAF0C8
:10351000146E050EE15E145000090CE10301CD0E9E
:10352000676FE80E686F000E696F6AEC26F00101A4
:10353000B56BC26BD2D1C80EE66EE80EE66E000E19
:10354000E66E1A0EE66E0A0EE66E1DECAAF0146E1A
:10355000050EE15E1450000916E1F30EE66EE80E6A
:10356000E66E000EE66E200EE66E0A0EE66E1DECAE
:10357000AAF0146E050EE15E1450000903E101018A
:10358000010ECF6FAAD1C30EE66EE80EE66E000EF6
:10359000E66E1A0EE66E0A0EE66E1DECAAF0146ECA
:1035A000050EE15E1450000916E1F30EE66EE80E1A
:1035B000E66E000EE66E200EE66E0A0EE66E1DEC5E
:1035C000AAF0146E050EE15E1450000903E101013A
:1035D000010ED06F82D1BF0EE66EE80EE66E000ED1
:1035E000E66E1A0EE66E0A0EE66E1DECAAF0146E7A
:1035F000050EE15E1450000919E1F30EE66EE80EC7
:10360000E66E000EE66E200EE66E0A0EE66E1DEC0D
:10361000AAF0146E050EE15E1450000906E10101E6
:10362000010E386F0401396B3A6B57D1BB0EE66E51
:10363000E80EE66E000EE66E1A0EE66E0A0EE66EF6
:103640001DECAAF0146E050EE15E1450000934E181
:10365000200EE66E0A0EE66E4CECAAF0E552E5523C
:10366000F3CF6AF606016A5108E0150E146E156A6A
:103670006A51145C000E155805E20C01060E1C6F11
:103680001BEF24F06A51E66EE66A200EE66E0A0E23
:10369000E66E390EE66E010EE66E55ECA9F0146E7C
:1036A000060EE15E145006016A51EA6A390FE96EAE
:1036B000010EEA22EF6A11D1B70EE66EE80EE66E51
:1036C000000EE66E1A0EE66E0A0EE66E1DECAAF00D
:1036D000146E050EE15E145000090DE1200EE66E39
:1036E0000A0EE66EA4ECA1F0E552E552F3CF73F1B9
:1036F000F4CF74F1F2D0B30EE66EE80EE66E000E73
:10370000E66E1A0EE66E0A0EE66E1DECAAF0146E58
:10371000050EE15E1450000934E1200EE66E0A0E3B
:10372000E66E4CECAAF0E552E552F3CF6AF60601DC
:103730006A5108E0250E146E156A6A51145C000E79
:10374000155805E20C01070E1C6F1BEF24F06A519F
:10375000E66EE66A200EE66E0A0EE66E4E0EE66E27
:10376000010EE66E55ECA9F0146E060EE15E1450E3
:1037700006016A51EA6A4E0FE96E010EEA22EF6A0B
:10378000ACD0AF0EE66EE80EE66E000EE66E1A0ED8
:10379000E66E0A0EE66E1DECAAF0146E050EE15EF2
:1037A000145000090DE1200EE66E0A0EE66EA4EC40
:1037B000A1F0E552E552F3CF75F1F4CF76F18DD05B
:1037C000AB0EE66EE80EE66E000EE66E1A0EE66EC4
:1037D0000A0EE66E1DECAAF0146E050EE15E1450A2
:1037E000000916E1F30EE66EE80EE66E000EE66ED8
:1037F000200EE66E0A0EE66E1DECAAF0146E050EA3
:10380000E15E1450000903E10101010E776F65D0FC
:10381000A70EE66EE80EE66E000EE66E1A0EE66E77
:103820000A0EE66E1DECAAF0146E050EE15E145051
:1038300000090DE1200EE66E0A0EE66EA4ECA1F082
:10384000E552E552F3CF78F1F4CF79F146D0A30EEB
:10385000E66EE80EE66E000EE66E1A0EE66E0A0ED4
:10386000E66E1DECAAF0146E050EE15E1450000920
:103870000DE1200EE66E0A0EE66EA4ECA1F0E55214
:10388000E552F3CF7AF1F4CF7BF127D09F0EE66EAD
:10389000E80EE66E000EE66E1A0EE66E0A0EE66E94
:1038A0001DECAAF0146E050EE15E1450000915E13E
:1038B000F30EE66EE80EE66E000EE66E200EE66E85
:1038C0000A0EE66E1DECAAF0146E050EE15E1450B1
:1038D000000903E10101010E7C6F9A0EE66EE80E0D
:1038E000E66E000EE66E1A0EE66E0A0EE66E1DEC31
:1038F000AAF0146E050EE15E145000092AE1960E3E
:10390000E66EE80EE66E000EE66E200EE66E0A0E1D
:10391000E66E1DECAAF0146E050EE15E145000096F
:1039200003E10101836B15D0930EE66EE80EE66E9F
:10393000000EE66E200EE66E0A0EE66E1DECAAF094
:10394000146E050EE15E1450000903E10101010E41
:10395000836F8E0EE66EE80EE66E000EE66E1A0EB1
:10396000E66E0A0EE66E1DECAAF0146E050EE15E20
:10397000145000092AE1960EE66EE80EE66E000E7F
:10398000E66E200EE66E0A0EE66E1DECAAF0146ED0
:10399000050EE15E1450000903E10101846B15D0AE
:1039A000930EE66EE80EE66E000EE66E200EE66EF4
:1039B0000A0EE66E1DECAAF0146E050EE15E1450C0
:1039C000000903E10101010E846F890EE66EE80E25
:1039D000E66E000EE66E1A0EE66E0A0EE66E1DEC40
:1039E000AAF0146E050EE15E145000092AE1960E4D
:1039F000E66EE80EE66E000EE66E200EE66E0A0E2D
:103A0000E66E1DECAAF0146E050EE15E145000097E
:103A100003E10101856B15D0930EE66EE80EE66EAC
:103A2000000EE66E200EE66E0A0EE66E1DECAAF0A3
:103A3000146E050EE15E1450000903E10101010E50
:103A4000856F840EE66EE80EE66E000EE66E1A0EC8
:103A5000E66E0A0EE66E1DECAAF0146E050EE15E2F
:103A6000145000092AE1960EE66EE80EE66E000E8E
:103A7000E66E200EE66E0A0EE66E1DECAAF0146EDF
:103A8000050EE15E1450000903E10101866B15D0BB
:103A9000930EE66EE80EE66E000EE66E200EE66E03
:103AA0000A0EE66E1DECAAF0146E050EE15E1450CF
:103AB000000903E10101010E866F7F0EE66EE80E3C
:103AC000E66E000EE66E1A0EE66E0A0EE66E1DEC4F
:103AD000AAF0146E050EE15E145000092AE1960E5C
:103AE000E66EE80EE66E000EE66E200EE66E0A0E3C
:103AF000E66E1DECAAF0146E050EE15E145000098E
:103B000003E10101876B15D0930EE66EE80EE66EB9
:103B1000000EE66E200EE66E0A0EE66E1DECAAF0B2
:103B2000146E050EE15E1450000903E10101010E5F
:103B3000876F7A0EE66EE80EE66E000EE66E1A0EDF
:103B4000E66E0A0EE66E1DECAAF0146E050EE15E3E
:103B5000145000092AE1960EE66EE80EE66E000E9D
:103B6000E66E200EE66E0A0EE66E1DECAAF0146EEE
:103B7000050EE15E1450000903E10101886B15D0C8
:103B8000930EE66EE80EE66E000EE66E200EE66E12
:103B90000A0EE66E1DECAAF0146E050EE15E1450DE
:103BA000000903E10101010E886F760EE66EE80E52
:103BB000E66E000EE66E1A0EE66E0A0EE66E1DEC5E
:103BC000AAF0146E050EE15E145000092BE1740E8C
:103BD000E66EE80EE66E000EE66E200EE66E0A0E4B
:103BE000E66E1DECAAF0146E050EE15E145000099D
:103BF00003E101017D6B15D0720EE66EE80EE66EF4
:103C0000000EE66E200EE66E0A0EE66E1DECAAF0C1
:103C1000146E050EE15E1450000903E10101010E6E
:103C20007D6F1ED06E0EE66EE80EE66E000EE66E3E
:103C30001A0EE66E0A0EE66E1DECAAF0146E050E64
:103C4000E15E145000090CE1200EE66E0A0EE66EED
:103C5000A4ECA1F0E552E552F3CF7EF1F4CF7FF171
:103C60006A0EE66EE80EE66E000EE66E1A0EE66E60
:103C70000A0EE66E1DECAAF0146E050EE15E1450FD
:103C800000092BE1740EE66EE80EE66E000EE66E9D
:103C9000200EE66E0A0EE66E1DECAAF0146E050EFE
:103CA000E15E1450000903E10101826B15D0720E30
:103CB000E66EE80EE66E000EE66E200EE66E0A0E6A
:103CC000E66E1DECAAF0146E050EE15E14500009BC
:103CD00003E10101010E826F58D2660EE66EE80E16
:103CE000E66E000EE66E1A0EE66E0A0EE66E1DEC2D
:103CF000AAF0146E050EE15E145000090DE1200ECD
:103D0000E66E0A0EE66EA4ECA1F0E552E552F3CFA2
:103D100080F1F4CF81F139D2620EE66EE80EE66EE4
:103D2000000EE66E1A0EE66E0A0EE66E1DECAAF0A6
:103D3000146E050EE15E1450000919E1F30EE66EF3
:103D4000E80EE66E000EE66E200EE66E0A0EE66ED9
:103D50001DECAAF0146E050EE15E1450000906E198
:103D60000101010E896F04013C6B3D6B0ED25E0EAA
:103D7000E66EE80EE66E000EE66E1A0EE66E0A0EAF
:103D8000E66E1DECAAF0146E050EE15E14500009FB
:103D900034E1200EE66E0A0EE66E4CECAAF0E55217
:103DA000E552F3CF6AF606016A5108E0270E146E59
:103DB000156A6A51145C000E155805E20C01080ED4
:103DC0001C6F1BEF24F06A51E66EE66A200EE66E69
:103DD0000A0EE66E8A0EE66E010EE66E55ECA9F04E
:103DE000146E060EE15E145006016A51EA6A8A0FEB
:103DF000E96E010EEA22EF6AC8D15A0EE66EE80EAD
:103E0000E66E000EE66E1A0EE66E0A0EE66E1DEC0B
:103E1000AAF0146E050EE15E145000092AE1200E8E
:103E2000E66E0A0EE66E4CECAAF0E552E552F3CFD0
:103E30006AF606016A5103E06A513C0805E20C018A
:103E4000090E1C6F1BEF24F00501606B200E616FE3
:103E5000626B636BE3ECA4F006016A290501666FEF
:103E6000676B0501200E646F0A0E656FECECA4F021
:103E70008CD1560EE66EE80EE66E000EE66E1A0E59
:103E8000E66E0A0EE66E1DECAAF0146E050EE15EFB
:103E9000145000090DE1200EE66E0A0EE66EA4EC49
:103EA000A1F0E552E552F3CFB1F1F4CFB2F16DD10B
:103EB000520EE66EE80EE66E000EE66E1A0EE66E26
:103EC0000A0EE66E1DECAAF0146E050EE15E1450AB
:103ED00000090DE1200EE66E0A0EE66EA4ECA1F0DC
:103EE000E552E552F3CFB3F1F4CFB4F14ED14E0E1B
:103EF000E66EE80EE66E000EE66E1A0EE66E0A0E2E
:103F0000E66E1DECAAF0146E050EE15E1450000979
:103F100012E10C0EE66EE66A200EE66E0A0EE66E02
:103F2000B50EE66E010EE66E55ECA9F0146E060EA7
:103F3000E15E14502AD14A0EE66EE80EE66E000EDF
:103F4000E66E1A0EE66E0A0EE66E1DECAAF0146E10
:103F5000050EE15E1450000901E07BD00101EA6B1F
:103F60000101FF6BB50EE66E010EE66E4CECAAF099
:103F7000E552E552F3CF14F0F4CF15F014501510BC
:103F800067E0200EE66E0A0EE66E4CECAAF0E552F3
:103F9000E552F3CF6FF606016F51E66EE66A690EE1
:103FA000E66E620EE66E010EE66E200EE66E0A0EFC
:103FB000E66E36ECA9F0146E070EE15E14500009AF
:103FC00047E00101010EFF6F06016F29E66EE66A08
:103FD000200EE66E0A0EE66EEA0EE66E010EE66E44
:103FE00055ECA9F0146E060EE15E14500301370E75
:103FF000676FE80E686F000E696F6AEC26F00601C5
:104000006F510301616F626B4EEC26F003012A0EC3
:10401000676FE80E686F000E696F6AEC26F00301A7
:10402000EA0E6A6F010E6B6F95EC26F003015B0ED2
:10403000676FEA0E686F000E696F6AEC26F0030185
:10404000690E676F620E686F010E696F6AEC26F089
:104050009CD0260EE66EE80EE66E000EE66E1A0E98
:10406000E66E0A0EE66E1DECAAF0146E050EE15E19
:104070001450000901E089D003011B0E676FE80EA0
:10408000686F000E696F6AEC26F0FFC160F32CECDC
:1040900026F0B50EE66E010EE66E4CECAAF0E55287
:1040A000E552F3CF14F0F4CF15F0145015106DE075
:1040B0000101FF516AE0EA0EE66E010EE66E200E87
:1040C000E66E0A0EE66EFDECA9F0E552E552E55209
:1040D000E552000904E00C01020E1C6FACD3EA0E9D
:1040E000E66E010EE66E4CECAAF0E552E552F3CF17
:1040F00014F0F4CF15F0030E145C000E155804E212
:104100000C01030E1C6F97D3EA0EE66E010EE66EED
:104110004CECAAF0E552E552F3CF14F0F4CF15F0D1
:104120000C0ED8801454000E155404E20C01030E3A
:104130001C6F81D303010B0E676FE80E686F000ED2
:10414000696F6AEC26F0200EE66E0A0EE66E4CEC05
:10415000AAF0E552E552F3CF14F0F4CF15F0010EBA
:104160001426000E152214C0E6FF15C0E6FF200E2F
:10417000E66E0A0EE66EC20EE66E010EE66E55ECB7
:10418000A9F0166E060EE15E1650B4EF18F00301AA
:10419000FA0E676FE70E686F000E696F6AEC26F023
:1041A0001CCC60F32CEC26F00401010E446FC4EC2F
:1041B0003BF03ED3FFD7070EFE5D04E0080EFE5D28
:1041C00001E004D30301EA0E676FE70E686F000E8B
:1041D000696F6AEC26F0FEC160F32CEC26F00A0150
:1041E000005101110211031101E1E9D2060E04018F
:1041F000F96FFA6B04011A0EF76F0A0EF86F83EC71
:1042000067F000090AE00301E20E676FE70E686FCE
:10421000000E696F6AEC26F0D2D25C0E0401FD6FCD
:10422000FE6B0401200EFB6F0A0EFC6FA3EC67F01F
:10423000000901E0FFD70301DB0E676FE70E686F2F
:10424000000E696F6AEC26F003011A0E6A6F0A0EFF
:104250006B6F95EC26F0260EE66EE80EE66E000E0D
:10426000E66E1A0EE66E0A0EE66E1DECAAF0146EED
:10427000050EE15E1450000901E013D162C076F62C
:1042800063C077F6D70EE66EE70EE66E000EE66EBA
:10429000200EE66E0A0EE66E1DECAAF0146E050EF8
:1042A000E15E1450000906E10001A40E626F060EE3
:1042B000636FABD0D30EE66EE70EE66E000EE66ED1
:1042C000200EE66E0A0EE66E1DECAAF0146E050EC8
:1042D000E15E1450000906E10001080E626F070E4E
:1042E000636F93D0CF0EE66EE70EE66E000EE66EBD
:1042F000200EE66E0A0EE66E1DECAAF0146E050E98
:10430000E15E1450000906E100016C0E626F070EB9
:10431000636F7BD0CB0EE66EE70EE66E000EE66EA8
:10432000200EE66E0A0EE66E1DECAAF0146E050E67
:10433000E15E1450000906E10001D00E626F070E25
:10434000636F63D0C70EE66EE70EE66E000EE66E94
:10435000200EE66E0A0EE66E1DECAAF0146E050E37
:10436000E15E1450000906E10001F00E626F0A0ED2
:10437000636F4BD0C30EE66EE70EE66E000EE66E80
:10438000200EE66E0A0EE66E1DECAAF0146E050E07
:10439000E15E1450000906E10001540E626F0B0E3D
:1043A000636F33D0BF0EE66EE70EE66E000EE66E6C
:1043B000200EE66E0A0EE66E1DECAAF0146E050ED7
:1043C000E15E1450000906E10001B80E626F0B0EA9
:1043D000636F1BD0BB0EE66EE70EE66E000EE66E58
:1043E000200EE66E0A0EE66E1DECAAF0146E050EA7
:1043F000E15E1450000906E100011C0E626F0C0E14
:10440000636F03D0000162696369621D01E1631D8E
:1044100028E00001641D01E1651D17E10001B51DE3
:1044200001E1B61D05E176C662F077C663F00CD0F7
:10443000B5510001625D0001B6510001635904E30A
:1044400076C662F077C663F00CD064510001625DFD
:10445000000165510001635904E376C662F077C636
:1044600063F062C0D1F163C0D2F10301AE0E676F99
:10447000E70E686F000E696F6AEC26F062C061F3A8
:1044800063C062F34EEC26F062C0F4F563C0F5F54C
:104490000501150EF36F82ECABF062C0B7F063C09C
:1044A000B8F0AA0EE66EE70EE66E000EE66E1A0E85
:1044B000E66E0A0EE66E1DECAAF0146E050EE15EC5
:1044C0001450000901E065D164C078F665C079F642
:1044D0000301A10E676FE70E686F000E696F6AEC4B
:1044E00026F00301200E6A6F0A0E6B6F95EC26F022
:1044F0009D0EE66EE70EE66E000EE66E200EE66E90
:104500000A0EE66E1DECAAF0146E050EE15E145064
:10451000000906E10001C40E646F090E656FBDD08D
:10452000990EE66EE70EE66E000EE66E200EE66E63
:104530000A0EE66E1DECAAF0146E050EE15E145034
:10454000000906E10001280E646F0A0E656FA5D010
:10455000950EE66EE70EE66E000EE66E200EE66E37
:104560000A0EE66E1DECAAF0146E050EE15E145004
:10457000000906E100018C0E646F0A0E656F8DD094
:10458000C70EE66EE70EE66E000EE66E200EE66ED5
:104590000A0EE66E1DECAAF0146E050EE15E1450D4
:1045A000000906E10001F00E646F0A0E656F75D018
:1045B000910EE66EE70EE66E000EE66E200EE66EDB
:1045C0000A0EE66E1DECAAF0146E050EE15E1450A4
:1045D000000906E10001AC0E646F0D0E656F5DD041
:1045E0008D0EE66EE70EE66E000EE66E200EE66EAF
:1045F0000A0EE66E1DECAAF0146E050EE15E145074
:10460000000906E10001100E646F0E0E656F45D0C3
:10461000890EE66EE70EE66E000EE66E200EE66E82
:104620000A0EE66E1DECAAF0146E050EE15E145043
:10463000000906E10001740E646F0E0E656F2DD047
:10464000850EE66EE70EE66E000EE66E200EE66E56
:104650000A0EE66E1DECAAF0146E050EE15E145013
:1046600000090FE10001D80E646F0E0E656F0301A3
:10467000830E676FE70E686F000E696F6AEC26F0B5
:104680000CD000016469656903017F0E676FE70E56
:10469000686F000E696F6AEC26F00301710E676F98
:1046A000E70E686F000E696F6AEC26F064C061F374
:1046B00065C062F34EEC26F00001641D01E1651D4A
:1046C0002AE00001621D01E1631D18E10001B31D34
:1046D00001E1B41D05E178C664F079C665F00DD03E
:1046E000000164510001B35D000165510001B4593E
:1046F00004E378C664F079C665F00DD0000164511A
:104700000001625D000165510001635904E378C650
:1047100064F079C665F064C0D3F165C0D4F10301DB
:10472000630E676FE70E686F000E696F6AEC26F024
:1047300064C061F365C062F34EEC26F064C0F4F52A
:1047400065C0F5F50501160EF36F82ECABF00301C1
:10475000550E676FE70E686F000E696F6AEC26F002
:1047600064C061F365C062F34EEC26F064C0B9F03A
:1047700065C0BAF00301470E676FE70E686F000E61
:10478000696F6AEC26F064C061F365C062F34EECB9
:1047900026F003013A0E676FE70E686F000E696F2F
:1047A0006AEC26F064C061F365C062F34EEC26F05B
:1047B00062C061F363C062F34EEC26F010D50401D1
:1047C000010E446FC4EC3BF033D0FFD7FE0516E179
:1047D0000C01945103E0000161050BE000016C51F4
:1047E00003E004EC30F002D0FDEC2FF00C011C6B68
:1047F00003D00C010A0E1C6F1ED01AD0020EFE5DF3
:1048000016E10C01995103E0000161050BE0000184
:104810006D5103E011EC30F002D00AEC30F00C01E5
:104820001C6B03D00C010A0E1C6F05D001D003D005
:104830000C01010E1C6F0101FE5110E12D0EE66E00
:10484000E70EE66E000EE66E1A0EE66E0A0EE66ED5
:1048500033ECAAF0146E050EE15E14500101FE0562
:1048600002E152EC17F0020E0101FE5D02E152EC92
:1048700017F0030E0101FE5D24E152EC17F0030175
:10488000220E676FE70E686F000E696F6AEC26F004
:104890001CCC60F32CEC26F00C011C0512E100018D
:1048A000010E606FA3C5ABF5A4C5ACF5A5C5ADF50C
:1048B000A6C5AEF5040E0501AB27000EAC23AD2353
:1048C000AE230101FE51030813E20F0EFE5D10E25C
:1048D000160EE66EE70EE66E000EE66E1A0EE66E39
:1048E0000A0EE66E33ECAAF0146E050EE15E14506B
:1048F0000F0E0101FE5D02E152EC17F00A01366B6A
:1049000006010C0E6C6F1C0E6C5D12E26C51EA6AB3
:104910001A0FE96E0A0EEA22EF50200807E16C51E7
:10492000EA6A1A0FE96E0A0EEA22EF6A6C2BEBD7DD
:0C4930000A010B0E186F000E00D01200E0
:04493C00ABEC3EF0B2
:10494000E6529EA022D0CE6A800ECF6E05019F2B2C
:10495000000EA023A123A223A32BA423A523A623D7
:10496000FF0E0001615D02E18E8C0ED00501B45195
:104970000BE1B15102E08E8C01D08E9CB15102E06E
:10498000000E01D0010EB16F9E90E5525CEF3EF03B
:10499000ABEC3EF0E2CFDAFFE9CFE4FFEACFE4FF91
:1049A000F6CFE4FFF7CFE4FFF8CFE4FFF5CFE4FF65
:1049B000F3CFE4FFF4CFE4FFFACFE4FFFBCFE4FF53
:1049C00000EE00F0140EE80403E3EECFE4FFFBD7A3
:1049D00000EE14F0100EE80403E3EECFE4FFFBD783
:1049E000E6529EA217D09E920501B4510EE100013D
:1049F000E35104E0E307E35101E18E8A0501B2517E
:104A000004E0B207B25101E1B06BA72B000EA8235E
:104A1000A923AA23F2A407D00601152B000E162302
:104A200017231823F29421ECAFF0E55200EE23F0A7
:104A3000100EE80403E3E5CFEDFFFBD700EE13F023
:104A4000140EE80403E3E5CFEDFFFBD7E5CFFBFF52
:104A5000E5CFFAFFE5CFF4FFE5CFF3FFE5CFF5FFB4
:104A6000E5CFF8FFE5CFF7FFE5CFF6FFE5CFEAFFAB
:104A7000E5CFE9FF5CEF3EF00601216B226B0301FD
:104A800052510601215D03015351060122590AE2E8
:104A9000000000000000000000000601212B000EB5
:104AA0002223EDD71200300E0301545D03E354516D
:104AB000390801E2000C010C06011D6B1E6B03019D
:104AC000555106011D5D0301565106011E590BE2A9
:104AD0000301E80E526F030E536FCEDF06011D2B4C
:104AE000000E1E23ECD71200070EB46E979C8E8C1E
:104AF0008E8A979A8E8897988E86979696860301C7
:104B0000E80E556F030E566FD7DF8E9A8E988E96ED
:104B1000040012000501B45115E112EC94F00009F3
:104B200010E00501AF510EE0B0510CE10001280E7C
:104B3000E36F0501AF6B8E9A010EB06F500EB26F2E
:104B400001D08E9A0501B45101E11200A70EE96E61
:104B5000050EEA6EEE500301575DEE505859EE50C7
:104B60005959EE505A5947E20501B35102E0000E7F
:104B700001D0010EB36FA7C557F3A8C558F3A9C557
:104B800059F3AAC55AF3900E03015727010E582373
:104B9000000E59235A230501B35105E08E8C8E8AED
:104BA0008E888E8604D08E988E968E9C8E9A5BC34D
:104BB00014F05CC315F05DC316F05EC317F0100E61
:104BC0001426270E1522000E16221722A751145C58
:104BD000A8511558A9511658AA5117580CE2B46B90
:104BE00000016C5102E08E8801D08E986D5102E078
:104BF0008E8612008E9612000601976B03015FA14C
:104C000002D0060101D00601939E939C966B080E7C
:104C1000965D12E2819C03015FA105D0818E818C9B
:104C20000601972B02D0819E818C03015F417F0B8F
:104C30005F6F0601962BEBD7819C986B010E985DF8
:104C400002E2982BFBD797A102D0818E01D0819EE2
:104C5000818C819C819E12000F0E0301601506015C
:104C6000486FF00E03016015E8380F0B0601496F1D
:104C7000E850090802E2370E01D0300E4925030141
:104C80005F6FBADF06014851090802E2370E01D012
:104C9000300E482503015F6FFCEF25F062C314F06E
:104CA000156A62C360F3D8DF61C360F32CEF26F0AE
:104CB00065C314F066C315F00001166A176A65C370
:104CC00061F366C362F3EADF63C361F364C362F353
:104CD0004EEF26F0E5EC3EF05AECAAF0E552E55234
:104CE000E55207C049F6060107501E0802E21E0EF3
:104CF000496F4951E66EE66AE5EC3EF04A0EE66E13
:104D0000060E59EC3FF00601486B4951485D0CE234
:104D10004851EA6A4A0FE96E060EEA22EFCF5FF3C6
:104D20006BDF0601482BF1D712006AC3E6FF6BC3A5
:104D3000E6FF4DEC3EF0F3CF2FF606012E6B2F5120
:104D40002E5D0DE22E510301EA6A6A25E96E6B5170
:104D5000EA22EFCF5FF350DF06012E2BF0D71200CF
:104D600012EC94F0000901E1000C6CC34FFEE4EC7E
:104D70008FF0F350F41001E1000C010C0301B45169
:104D8000090815E2B3EC3EF005C05FF6B3EC3EF067
:104D900009C0B4F3300E03010924E66EBAEC3EF00C
:104DA000E552E750EF6E300E06015F2505D0BAECF4
:104DB0003EF0300EEF6EB425B5C3E9FFB6C3EAFF8F
:104DC000EF6E12002D0E0C01395D04E1010E06019B
:104DD0002E6F02D006012E6B2F6B2C6B2D6B2A6B66
:104DE0002B6B366B396B030E395D37E22C512D116D
:104DF0000CE139514EEC3FF008E3395136EC3FF00D
:104E0000390803E3010E2C6F2D6B2C512D1123E07B
:104E1000395136EC3FF021E039514EEC3FF005E3DB
:104E2000395136EC3FF0390803E2010E2A6F2B6B43
:104E3000395136EC3FF0E66E3651E96EEA6AD890A9
:104E4000E936EA36300EE926060EEA22E552E75048
:104E5000EE6EED6A362B392BC6D72A512B1124E181
:104E6000360505E164EC3EF014C03AF61DD0020EA2
:104E7000365D17E164EC3EF00A0E1502F3CF15F033
:104E80001402F3CF14F0F450152632C616F033C6D0
:104E900017F0300E165E000E175AF35016243A6FB4
:104EA00003D0010E2A6F2B6B2A512B1122E12E51B8
:104EB0002F1110E089EC3DF015AE02D0166817688E
:104EC00014500301B95F1550BA5B1650BB5B175005
:104ED000BC5B0FD089EC3DF015AE02D016681768A8
:104EE00014500301B9271550BA231650BB2317508D
:104EF000BC23800E0301B95F7E0EBA5BAA0EBB5BBA
:104F0000830EBC5B6DEC3EF0CAEC3DF0CCECB0F037
:104F100006C03BF607C03CF6B9C33DF6BAC33EF641
:104F2000BBC33FF6BCC340F6CAEC3DF06DEC3EF0AF
:104F3000CCECB0F076EC3EF00601800E40150BE0B4
:104F4000800E3D27510E3E23010E3F23000E4023CD
:104F50003B073C5BF1D7D8904051000A08E6800E31
:104F60003D5D510E3E59010E3F59000E40590BE375
:104F7000800E3D5F510E3E5B010E3F5B000E405BBD
:104F80003B2B3C23E8D7F5EC3DF007EC3EF078EC0A
:104F900099F006C01FF607EC3EF0F5EC3DF078EC1A
:104FA00099F076EC3EF002C006F003C007F004C0B2
:104FB00008F005C009F0A0EC3EF078EC99F006C0CE
:104FC0001EF6F5EC3DF0A0EC3EF078EC99F002C056
:104FD0001DF6040E0601156A3B25146E3C51152280
:104FE000070E39EC3FF004C025F60601043402E355
:104FF000070E252725C623F6B20E266F070E276F4C
:10500000800E3C1530E17FEC3EF006E19DEC3DF07A
:1050100005E155EC3DF002E0000E01D0010EC2ECBE
:105020003EF008EC3FF0FDE1B80EE926050EEA225D
:10503000EECF14F0EFCF15F0060114503B5D155084
:105040003C592DE3262B000E272328C6E9FF29C64D
:10505000EAFF010E08EC3FF0FDE1ECEC3EF03B5FB7
:10506000EE503C5BD0D72607000E275B7FEC3EF06E
:1050700006E19DEC3DF005E155EC3DF002E0000E4F
:1050800001D0010EC2EC3EF008EC3FF0FDE1ECEC8B
:105090003EF03B27EE503C23800E3C15E4E126C653
:1050A00014F027C615F06C0E145E070E155A14C0C6
:1050B00022F63BC624F6216BF60E176E5F0E186EB5
:1050C000010E196E28C61AF029C61BF01C6A88EC5E
:1050D0003EF01CC009F0CAEC99F004C01AF005C0FB
:1050E0001BF006C01CF017500424146E1850052045
:1050F000156E19500620166E21C61DF01E6A1F6A15
:1051000014501D24F36E15501E20F46E16501F20EF
:1051100027EC3FF006013CAF02D0D89003D03B5DB6
:10512000000E3C5935E3F60E196E5F0E1A6E010E35
:105130001B6E28C61CF029C61DF01E6A88EC3EF0C6
:105140001EC009F0CAEC99F005C01DF006C01EF0A3
:1051500019500424166E1A500520176E1B50062095
:10516000186E21C61FF0206A216A16501F24F36EA4
:1051700017502020F46E1850212027EC3FF0146EB9
:10518000156AE85006013B5F15503C5B212B94D714
:10519000010E3B25206F396B030E395D0BE2E10EEA
:1051A000146E5F0E156E010E166E030E23031BECBC
:1051B0003FF0F2D765EC3DF0200EEF6E0601396B43
:1051C000030E395D0BE2BD0E146E5F0E156E010EFF
:1051D000166E030E21031BEC3FF0F2D765EC3DF099
:1051E000200EEF6E35EC3EF020C6B4F36FEC3FF0CE
:1051F00035EC3EF01FC6B4F341EC3FF01EC6B4F3ED
:1052000041EC3FF01DC6B4F36FEC3FF0DAEC3DF03B
:1052100008C037F6DAEC3DF004C014F005C015F014
:1052200004C038F635EC3EF037C6B4F361EC3FF01D
:1052300035EC3EF038C6B4F317EC3DF0EF6A1200DF
:105240000DEC3FF015EC3EF001E1000C010E89EC95
:105250003FF00FE1010E48EC3DF0EF503A0801E05D
:10526000000C0DEC3FF0EF50D00F06011D6F020E49
:1052700013D0010E48EC3DF0EF50D00F146E0DEC42
:105280003FF0CAEC3EF0020E48EC3DF0EF503A0819
:1052900001E0000C0601030E1E6FE85089EC3FF0A0
:1052A00001E1000C06011E2989EC3FF001E1000C30
:1052B00006011D51170801E2000CBFC3E9FFC0C37E
:1052C000EAFF1DC6EFFF1E2948EC3DF0EF50D00F5E
:1052D000146E06011E5148EC3DF0CAEC3EF0E85059
:1052E0003B0801E2000CC1C3E9FFC2C3EAFF1DC6CF
:1052F000EFFF020E1E25120006011E6BC3C3E6FF60
:10530000C4C3E6FF4DEC3EF0F3CF20F60601F350A8
:1053100001E1000C1D6B20511D5D18E203EC3DF016
:10532000EF502E0810E056EC3FF0EF502D080BE048
:1053300056EC3FF0EF502B0806E056EC3FF015EC32
:105340003EF001E1000C06011D2BE5D71D6B202B63
:10535000226B216B03EC3DF0EF502B0804E10601BA
:105360001D2B2007222B56EC3FF0EF502D0806E1B5
:1053700006011D2B2007010E216F222B060120079D
:1053800003EC3DF0EF502E0803E0060120511EE132
:1053900056EC3FF0EFCF23F656EC3FF0EF6A0601F4
:1053A00022510301156AC325146EC451152214C07D
:1053B000E6FF15C0E6FFA4ECA1F0E552E552F3CFFD
:1053C0001EF656EC3FF023C6EFFF03D01D2B2051F5
:1053D000D5E106011F6B205107E01D2975EC3FF058
:1053E000EF50D00F06011F6F1FC609F0BAEC97F0FF
:1053F0006EEC3DF0660E0C6E0D6E1E0E0E6E410EC6
:105400000F6E92EC98F06EEC3DF01EC609F0BAEC0F
:1054100097F0E4EC3DF077EC3DF0FCEC97F06EECAF
:105420003DF00601215108E0F3EC3EF077EC3DF051
:10543000E5EC98F06EEC3DF00C6A0D6AFA0E0E6E1B
:10544000420E0F6E77EC3DF04AEC9AF0010A01E152
:10545000000C0C6A0D6A5C0E0E6EC20E0F6E77ECBD
:105460003DF053EC9AF0010A01E1000CC5C3E9FFDD
:10547000C6C3EAFF24C6EEFF25C6EEFF26C6EEFF32
:1054800027C6EEFF010C00016C0506E1C80EE66EB2
:10549000DF0EE66E000E05D0BE0EE66EDF0EE66E87
:1054A000000E69EF3FF000016D0506E1C80EE66EE3
:1054B000DF0EE66E000E05D0BE0EE66EDF0EE66E67
:1054C000000E69EF3FF06EC35FFE67EC91F0F3CF23
:1054D00090F3F4CF91F303019051911101E1CED3F8
:1054E0000E018B0E606F030E616F83EC91F00E0165
:1054F0008A0E606F030E616F83EC91F0020E030160
:10550000905F000E0301915B6EC34FFEE4EC8FF0E1
:10551000F3CF14F0F4CF15F01450151001E1F4D7C7
:10552000050E03018A1901E18B5101E17BD3030EC2
:1055300003018A1901E18B5101E1D1D0020E03016F
:105540008A1901E18B5101E193D0010E03018A19FF
:1055500001E18B5119E0040E03018A1901E18B511D
:1055600001E066D30E018D0E606F030E616F83EC58
:1055700091F00E018C0E606F030E616F83EC91F061
:1055800003018C2B000E8D230301010E8A1901E10A
:105590008B5104E1010E03018C6F8D6B0301040E2E
:1055A0008E6F020E8F6F8CC314F08DC315F0166AC8
:1055B000176A010E141806E1010E151803E11650C2
:1055C00001E1175005E1040E03018E6F8F6B11D0BE
:1055D0008CC314F08DC315F0166A176AD880010EBB
:1055E0001454010E1554000E1654000E175401E207
:1055F00045D30E01506B08EC90F00E01030E506F76
:1056000008EC90F08DC350FE08EC90F08CC350FE77
:1056100008EC90F08CC306F08DC307F00606000E70
:10562000075A086A096A0B6A020E0C6E0D6A0E6A46
:1056300094ECB0F002C0F6FF03C0F7FF04C0F8FF1F
:1056400006011E6B080E06011E5D11E206011D6BB0
:10565000400E06011D5D08E20900F5CF50FE08EC82
:1056600090F006011D2BF4D706011E2BEBD704D3B7
:1056700003018C6B8D6B040E03018E6F8F6B0E011B
:10568000506B08EC90F00E01040E506F08EC90F097
:105690008DC350FE08EC90F08CC350FE08EC90F0E7
:1056A0000301010E856F0301866B876B040E886F03
:1056B000896B0301C76BC86BC96BCA6B0301A46B11
:1056C000A56BA66BA76B0301A86BA96BAA6BAB6B51
:1056D0000301B06B010E0301CB6FCC6BCDD2030184
:1056E000855101E1CBD20E018D0E606F030E616F0B
:1056F00083EC91F00E018C0E606F030E616F83ECF2
:1057000091F0020E0301905F000E0301915B040E05
:1057100003018E6F8F6B0301000ED8809055020E2F
:10572000915501E2ABD2CBC314F0CCC315F01406F3
:10573000000E155A145003018C1902E115508D19F1
:1057400001E15ED20301CB5103018C1904E1030195
:10575000CC5103018D1901E091D20301CB2B000E36
:10576000CC2306011F6B100E06011F5D01E3BCD1A7
:10577000200E0E01646F656B0E01000E626F030E4A
:10578000636F9AEC91F00301010E8C1901E18D51C8
:1057900001E0C0D006011F5101E0BCD0030100515F
:1057A0000301012503010225030103250301B36F52
:1057B00000C3B1F301C3B2F304C321F66F0E0301BA
:1057C000B35D03E00301010EB06F0301B0510AE1C4
:1057D0000601210507E10301866B800E876F886B48
:1057E000896B13D00501040E086F030E096F95EC49
:1057F00068F0020E061805E1075003E1085001E1C8
:10580000095003E00301010EB06F0501080E086F97
:10581000030E096F95EC68F006C09CF307C09DF37A
:1058200008C09EF309C09FF305010C0E086F030E1C
:10583000096F95EC68F006C094F307C095F308C0B3
:1058400096F309C097F30501100E086F030E096F58
:1058500095EC68F006C0A0F307C0A1F308C0A2F35E
:1058600009C0A3F30501140E086F030E096F95EC30
:1058700068F006C098F307C099F308C09AF309C00E
:105880009BF3A00EE96E030EEA6E03019C51EE2419
:105890000301AC6F03019D51EE200301AD6F0301C5
:1058A0009E51EE200301AE6F03019F51EE200301D4
:1058B000AF6F020E0301AD27000E0301AE23000EF1
:1058C0000301AF23ACC306F0ADC307F0AEC308F0CD
:1058D000AFC309F00B6A020E0C6E0D6A0E6ACCECB7
:1058E000B0F006C092F307C093F3ACC314F0ADC39D
:1058F00015F0AEC316F0AFC317F0010E1516166AF9
:10590000176A145015101610171004E00301922B9B
:10591000000E93230301010ED8808C55000E8D5587
:1059200001E379D00301CD6BCE6B0301200ECD5D79
:10593000000ECE5970E2000E0301CD25E96E030E74
:105940000301CE21EA6EEF500301B219E66E000E9C
:105950000301CD25E96E030E0301CE21EA6EE55267
:10596000E750EF6E000E0301CD25E96E030E030133
:10597000CE21EA6EEF500301B125E66E000E030161
:10598000CD25E96E030E0301CE21EA6EE552E75004
:10599000EF6E03019C519D119E119F1119E0000EA5
:1059A0000301CD25E96E030E0301CE21EA6EEFCF90
:1059B00014F0000114500301A427000EA523A62310
:1059C000A72303019C07000E9D5B9E5B9F5B1ED07F
:1059D0000301A051A111A211A31118E0000E0301AF
:1059E000CD25E96E030E0301CE21EA6EEFCF14F050
:1059F000000114500301A827000EA923AA23AB23FA
:105A00000301A007000EA15BA25BA35B0301CD2BEA
:105A1000000ECE238AD7D880000E0301C755A00EF2
:105A2000C855040EC955000ECA550AE20301C76BDA
:105A3000A00EC86F040EC96FCA6B0301010EB06FD0
:105A40000301B05142E10601210506E10301010E07
:105A50008C1901E18D5139E086C360F587C361F58A
:105A600088C362F589C363F5E3ECA4F0200E050159
:105A7000666F676B0501000E646F030E656FECECDB
:105A8000A4F0200E0501516F526B0501000E4F6FFF
:105A9000030E506F86C34BF587C34CF588C34DF595
